{
  "contractName": "TokenAirdrop",
  "abi": [
    {
      "inputs": [
        {
          "internalType": "address",
          "name": "_tokenAddress",
          "type": "address"
        },
        {
          "internalType": "uint256",
          "name": "_airdropQuantity",
          "type": "uint256"
        },
        {
          "internalType": "address",
          "name": "_initialOwner",
          "type": "address"
        }
      ],
      "stateMutability": "nonpayable",
      "type": "constructor"
    },
    {
      "inputs": [
        {
          "internalType": "address",
          "name": "owner",
          "type": "address"
        }
      ],
      "name": "OwnableInvalidOwner",
      "type": "error"
    },
    {
      "inputs": [
        {
          "internalType": "address",
          "name": "account",
          "type": "address"
        }
      ],
      "name": "OwnableUnauthorizedAccount",
      "type": "error"
    },
    {
      "anonymous": false,
      "inputs": [
        {
          "indexed": true,
          "internalType": "address",
          "name": "recipient",
          "type": "address"
        },
        {
          "indexed": false,
          "internalType": "uint256",
          "name": "amount",
          "type": "uint256"
        }
      ],
      "name": "Airdrop",
      "type": "event"
    },
    {
      "anonymous": false,
      "inputs": [
        {
          "indexed": true,
          "internalType": "address",
          "name": "previousOwner",
          "type": "address"
        },
        {
          "indexed": true,
          "internalType": "address",
          "name": "newOwner",
          "type": "address"
        }
      ],
      "name": "OwnershipTransferred",
      "type": "event"
    },
    {
      "inputs": [],
      "name": "airdropQuantity",
      "outputs": [
        {
          "internalType": "uint256",
          "name": "",
          "type": "uint256"
        }
      ],
      "stateMutability": "view",
      "type": "function"
    },
    {
      "inputs": [],
      "name": "owner",
      "outputs": [
        {
          "internalType": "address",
          "name": "",
          "type": "address"
        }
      ],
      "stateMutability": "view",
      "type": "function"
    },
    {
      "inputs": [],
      "name": "renounceOwnership",
      "outputs": [],
      "stateMutability": "nonpayable",
      "type": "function"
    },
    {
      "inputs": [],
      "name": "tokenAddress",
      "outputs": [
        {
          "internalType": "address",
          "name": "",
          "type": "address"
        }
      ],
      "stateMutability": "view",
      "type": "function"
    },
    {
      "inputs": [
        {
          "internalType": "address",
          "name": "newOwner",
          "type": "address"
        }
      ],
      "name": "transferOwnership",
      "outputs": [],
      "stateMutability": "nonpayable",
      "type": "function"
    },
    {
      "inputs": [
        {
          "internalType": "uint256",
          "name": "_newAirdropQuantity",
          "type": "uint256"
        }
      ],
      "name": "setAirdropQuantity",
      "outputs": [],
      "stateMutability": "nonpayable",
      "type": "function"
    },
    {
      "inputs": [
        {
          "internalType": "address[]",
          "name": "recipients",
          "type": "address[]"
        }
      ],
      "name": "executeAirdrop",
      "outputs": [],
      "stateMutability": "nonpayable",
      "type": "function"
    }
  ],
  "bytecode": "0x608060405234801562000010575f80fd5b5060405162000d4938038062000d4983398181016040528101906200003691906200026a565b805f73ffffffffffffffffffffffffffffffffffffffff168173ffffffffffffffffffffffffffffffffffffffff1603620000aa575f6040517f1e4fbdf7000000000000000000000000000000000000000000000000000000008152600401620000a19190620002d4565b60405180910390fd5b620000bb816200010c60201b60201c565b508260015f6101000a81548173ffffffffffffffffffffffffffffffffffffffff021916908373ffffffffffffffffffffffffffffffffffffffff16021790555081600281905550505050620002ef565b5f805f9054906101000a900473ffffffffffffffffffffffffffffffffffffffff169050815f806101000a81548173ffffffffffffffffffffffffffffffffffffffff021916908373ffffffffffffffffffffffffffffffffffffffff1602179055508173ffffffffffffffffffffffffffffffffffffffff168173ffffffffffffffffffffffffffffffffffffffff167f8be0079c531659141344cd1fd0a4f28419497f9722a3daafe3b4186f6b6457e060405160405180910390a35050565b5f80fd5b5f73ffffffffffffffffffffffffffffffffffffffff82169050919050565b5f620001fc82620001d1565b9050919050565b6200020e81620001f0565b811462000219575f80fd5b50565b5f815190506200022c8162000203565b92915050565b5f819050919050565b620002468162000232565b811462000251575f80fd5b50565b5f8151905062000264816200023b565b92915050565b5f805f60608486031215620002845762000283620001cd565b5b5f62000293868287016200021c565b9350506020620002a68682870162000254565b9250506040620002b9868287016200021c565b9150509250925092565b620002ce81620001f0565b82525050565b5f602082019050620002e95f830184620002c3565b92915050565b610a4c80620002fd5f395ff3fe608060405234801561000f575f80fd5b506004361061007b575f3560e01c8063799d95fa11610059578063799d95fa146100c35780638da5cb5b146100df5780639d76ea58146100fd578063f2fde38b1461011b5761007b565b806306715ccb1461007f5780636887cee31461009d578063715018a6146100b9575b5f80fd5b610087610137565b60405161009491906105d7565b60405180910390f35b6100b760048036038101906100b29190610659565b61013d565b005b6100c161037b565b005b6100dd60048036038101906100d891906106ce565b61038e565b005b6100e76103a0565b6040516100f49190610738565b60405180910390f35b6101056103c7565b6040516101129190610738565b60405180910390f35b6101356004803603810190610130919061077b565b6103ec565b005b60025481565b610145610470565b5f828290501161018a576040517f08c379a000000000000000000000000000000000000000000000000000000000815260040161018190610800565b60405180910390fd5b5f60015f9054906101000a900473ffffffffffffffffffffffffffffffffffffffff1690505f5b83839050811015610375575f8484838181106101d0576101cf61081e565b5b90506020020160208101906101e5919061077b565b90505f73ffffffffffffffffffffffffffffffffffffffff168173ffffffffffffffffffffffffffffffffffffffff1603610255576040517f08c379a000000000000000000000000000000000000000000000000000000000815260040161024c90610895565b60405180910390fd5b8273ffffffffffffffffffffffffffffffffffffffff1663a9059cbb826002546040518363ffffffff1660e01b81526004016102929291906108b3565b6020604051808303815f875af11580156102ae573d5f803e3d5ffd5b505050506040513d601f19601f820116820180604052508101906102d2919061090f565b610311576040517f08c379a000000000000000000000000000000000000000000000000000000000815260040161030890610984565b60405180910390fd5b8073ffffffffffffffffffffffffffffffffffffffff167f8c32c568416fcf97be35ce5b27844cfddcd63a67a1a602c3595ba5dac38f303a60025460405161035991906105d7565b60405180910390a250808061036d906109cf565b9150506101b1565b50505050565b610383610470565b61038c5f6104f7565b565b610396610470565b8060028190555050565b5f805f9054906101000a900473ffffffffffffffffffffffffffffffffffffffff16905090565b60015f9054906101000a900473ffffffffffffffffffffffffffffffffffffffff1681565b6103f4610470565b5f73ffffffffffffffffffffffffffffffffffffffff168173ffffffffffffffffffffffffffffffffffffffff1603610464575f6040517f1e4fbdf700000000000000000000000000000000000000000000000000000000815260040161045b9190610738565b60405180910390fd5b61046d816104f7565b50565b6104786105b8565b73ffffffffffffffffffffffffffffffffffffffff166104966103a0565b73ffffffffffffffffffffffffffffffffffffffff16146104f5576104b96105b8565b6040517f118cdaa70000000000000000000000000000000000000000000000000000000081526004016104ec9190610738565b60405180910390fd5b565b5f805f9054906101000a900473ffffffffffffffffffffffffffffffffffffffff169050815f806101000a81548173ffffffffffffffffffffffffffffffffffffffff021916908373ffffffffffffffffffffffffffffffffffffffff1602179055508173ffffffffffffffffffffffffffffffffffffffff168173ffffffffffffffffffffffffffffffffffffffff167f8be0079c531659141344cd1fd0a4f28419497f9722a3daafe3b4186f6b6457e060405160405180910390a35050565b5f33905090565b5f819050919050565b6105d1816105bf565b82525050565b5f6020820190506105ea5f8301846105c8565b92915050565b5f80fd5b5f80fd5b5f80fd5b5f80fd5b5f80fd5b5f8083601f840112610619576106186105f8565b5b8235905067ffffffffffffffff811115610636576106356105fc565b5b60208301915083602082028301111561065257610651610600565b5b9250929050565b5f806020838503121561066f5761066e6105f0565b5b5f83013567ffffffffffffffff81111561068c5761068b6105f4565b5b61069885828601610604565b92509250509250929050565b6106ad816105bf565b81146106b7575f80fd5b50565b5f813590506106c8816106a4565b92915050565b5f602082840312156106e3576106e26105f0565b5b5f6106f0848285016106ba565b91505092915050565b5f73ffffffffffffffffffffffffffffffffffffffff82169050919050565b5f610722826106f9565b9050919050565b61073281610718565b82525050565b5f60208201905061074b5f830184610729565b92915050565b61075a81610718565b8114610764575f80fd5b50565b5f8135905061077581610751565b92915050565b5f602082840312156107905761078f6105f0565b5b5f61079d84828501610767565b91505092915050565b5f82825260208201905092915050565b7f4e6f20726563697069656e7473207370656369666965640000000000000000005f82015250565b5f6107ea6017836107a6565b91506107f5826107b6565b602082019050919050565b5f6020820190508181035f830152610817816107de565b9050919050565b7f4e487b71000000000000000000000000000000000000000000000000000000005f52603260045260245ffd5b7f496e76616c696420726563697069656e742061646472657373000000000000005f82015250565b5f61087f6019836107a6565b915061088a8261084b565b602082019050919050565b5f6020820190508181035f8301526108ac81610873565b9050919050565b5f6040820190506108c65f830185610729565b6108d360208301846105c8565b9392505050565b5f8115159050919050565b6108ee816108da565b81146108f8575f80fd5b50565b5f81519050610909816108e5565b92915050565b5f60208284031215610924576109236105f0565b5b5f610931848285016108fb565b91505092915050565b7f546f6b656e207472616e73666572206661696c656400000000000000000000005f82015250565b5f61096e6015836107a6565b91506109798261093a565b602082019050919050565b5f6020820190508181035f83015261099b81610962565b9050919050565b7f4e487b71000000000000000000000000000000000000000000000000000000005f52601160045260245ffd5b5f6109d9826105bf565b91507fffffffffffffffffffffffffffffffffffffffffffffffffffffffffffffffff8203610a0b57610a0a6109a2565b5b60018201905091905056fea26469706673582212205013ad7a2bbff546a64c9331cb99cffaf9867c26e075cbe564fb30267128573f64736f6c63430008150033",
  "immutableReferences": {},
  "source": "pragma solidity ^0.8.0;\r\n\r\nimport \"@openzeppelin/contracts/token/ERC20/ERC20.sol\";\r\nimport \"@openzeppelin/contracts/access/Ownable.sol\";\r\n\r\ncontract TokenAirdrop is Ownable {\r\n    address public tokenAddress;\r\n    uint256 public airdropQuantity;\r\n\r\n    event Airdrop(address indexed recipient, uint256 amount);\r\n\r\n    constructor(address _tokenAddress, uint256 _airdropQuantity, address _initialOwner)\r\n        Ownable(_initialOwner)\r\n    {\r\n        tokenAddress = _tokenAddress;\r\n        airdropQuantity = _airdropQuantity;\r\n    }\r\n\r\n\r\n    function setAirdropQuantity(uint256 _newAirdropQuantity) external onlyOwner {\r\n        airdropQuantity = _newAirdropQuantity;\r\n    }\r\n\r\n    function executeAirdrop(address[] calldata recipients) external onlyOwner {\r\n        require(recipients.length > 0, \"No recipients specified\");\r\n\r\n        IERC20 token = IERC20(tokenAddress);\r\n\r\n        for (uint256 i = 0; i < recipients.length; i++) {\r\n            address recipient = recipients[i];\r\n            require(recipient != address(0), \"Invalid recipient address\");\r\n\r\n            // Perform the token transfer\r\n            require(token.transfer(recipient, airdropQuantity), \"Token transfer failed\");\r\n\r\n            emit Airdrop(recipient, airdropQuantity);\r\n        }\r\n    }\r\n}\r\n",
  "sourcePath": "C:\\Users\\ARUN KUMAR PATHAK\\solidity-assignment\\contracts\\TokenAirdrop.sol",
  "compiler": {
    "name": "solc",
    "version": "0.8.21+commit.d9974bed.Emscripten.clang"
  },
  "schemaVersion": "3.4.16",
  "updatedAt": "2024-01-31T07:14:05.509Z",
  "devdoc": {
    "errors": {
      "OwnableInvalidOwner(address)": [
        {
          "details": "The owner is not a valid owner account. (eg. `address(0)`)"
        }
      ],
      "OwnableUnauthorizedAccount(address)": [
        {
          "details": "The caller account is not authorized to perform an operation."
        }
      ]
    },
    "kind": "dev",
    "methods": {
      "owner()": {
        "details": "Returns the address of the current owner."
      },
      "renounceOwnership()": {
        "details": "Leaves the contract without owner. It will not be possible to call `onlyOwner` functions. Can only be called by the current owner. NOTE: Renouncing ownership will leave the contract without an owner, thereby disabling any functionality that is only available to the owner."
      },
      "transferOwnership(address)": {
        "details": "Transfers ownership of the contract to a new account (`newOwner`). Can only be called by the current owner."
      }
    },
    "version": 1
  },
  "userdoc": {
    "kind": "user",
    "methods": {},
    "version": 1
  }
}